{
  "contractName": "DistributorRole",
  "abi": [
    {
      "inputs": [],
      "payable": false,
      "stateMutability": "nonpayable",
      "type": "constructor"
    },
    {
      "anonymous": false,
      "inputs": [
        {
          "indexed": true,
          "internalType": "address",
          "name": "account",
          "type": "address"
        }
      ],
      "name": "DistributorAdded",
      "type": "event"
    },
    {
      "anonymous": false,
      "inputs": [
        {
          "indexed": true,
          "internalType": "address",
          "name": "account",
          "type": "address"
        }
      ],
      "name": "DistributorRemoved",
      "type": "event"
    },
    {
      "constant": true,
      "inputs": [
        {
          "internalType": "address",
          "name": "account",
          "type": "address"
        }
      ],
      "name": "isDistributor",
      "outputs": [
        {
          "internalType": "bool",
          "name": "",
          "type": "bool"
        }
      ],
      "payable": false,
      "stateMutability": "view",
      "type": "function"
    },
    {
      "constant": false,
      "inputs": [
        {
          "internalType": "address",
          "name": "account",
          "type": "address"
        }
      ],
      "name": "addDistributor",
      "outputs": [],
      "payable": false,
      "stateMutability": "nonpayable",
      "type": "function"
    },
    {
      "constant": false,
      "inputs": [],
      "name": "renounceDistributor",
      "outputs": [],
      "payable": false,
      "stateMutability": "nonpayable",
      "type": "function"
    }
  ],
  "bytecode": "0x608060405234801561001057600080fd5b506100203361002560201b60201c565b6101c7565b61003d81600061008360201b6102251790919060201c565b8073ffffffffffffffffffffffffffffffffffffffff167fddbf200aa634dc3fb81cfd68583dd1040d1c751d335e1d86b631bde3e977fea860405160405180910390a250565b600073ffffffffffffffffffffffffffffffffffffffff168173ffffffffffffffffffffffffffffffffffffffff1614156100bd57600080fd5b6100cd828261013560201b60201c565b156100d757600080fd5b60018260000160008373ffffffffffffffffffffffffffffffffffffffff1673ffffffffffffffffffffffffffffffffffffffff16815260200190815260200160002060006101000a81548160ff0219169083151502179055505050565b60008073ffffffffffffffffffffffffffffffffffffffff168273ffffffffffffffffffffffffffffffffffffffff16141561017057600080fd5b8260000160008373ffffffffffffffffffffffffffffffffffffffff1673ffffffffffffffffffffffffffffffffffffffff16815260200190815260200160002060009054906101000a900460ff16905092915050565b610306806101d66000396000f3fe608060405234801561001057600080fd5b50600436106100415760003560e01c8063644241db146100465780637250e224146100505780638f0c86fa14610094575b600080fd5b61004e6100f0565b005b6100926004803603602081101561006657600080fd5b81019080803573ffffffffffffffffffffffffffffffffffffffff1690602001909291905050506100fb565b005b6100d6600480360360208110156100aa57600080fd5b81019080803573ffffffffffffffffffffffffffffffffffffffff169060200190929190505050610119565b604051808215151515815260200191505060405180910390f35b6100f933610136565b565b61010433610119565b61010d57600080fd5b61011681610139565b50565b600061012f82600061019390919063ffffffff16565b9050919050565b50565b61014d81600061022590919063ffffffff16565b8073ffffffffffffffffffffffffffffffffffffffff167fddbf200aa634dc3fb81cfd68583dd1040d1c751d335e1d86b631bde3e977fea860405160405180910390a250565b60008073ffffffffffffffffffffffffffffffffffffffff168273ffffffffffffffffffffffffffffffffffffffff1614156101ce57600080fd5b8260000160008373ffffffffffffffffffffffffffffffffffffffff1673ffffffffffffffffffffffffffffffffffffffff16815260200190815260200160002060009054906101000a900460ff16905092915050565b600073ffffffffffffffffffffffffffffffffffffffff168173ffffffffffffffffffffffffffffffffffffffff16141561025f57600080fd5b6102698282610193565b1561027357600080fd5b60018260000160008373ffffffffffffffffffffffffffffffffffffffff1673ffffffffffffffffffffffffffffffffffffffff16815260200190815260200160002060006101000a81548160ff021916908315150217905550505056fea265627a7a72315820525ac1a5456f2db3f5782a6b887155958d3ef34ce06067554d9652d77dd6bdfa64736f6c63430005100032",
  "source": "pragma solidity ^0.5.16;\n\n// Import the library 'Roles'\nimport \"./Roles.sol\";\n\n// Define a contract 'DistributorRole' to manage this role - add, remove, check\ncontract DistributorRole {\n  using Roles for Roles.Role;\n\n  // Define 2 events, one for Adding, and other for Removing\n  event DistributorAdded(address indexed account);\n  event DistributorRemoved(address indexed account);\n\n  // Define a struct 'distributors' by inheriting from 'Roles' library, struct Role\n  Roles.Role private distributors;\n\n  // In the constructor make the address that deploys this contract the 1st distributor\n  constructor() public {\n    _addDistributor(msg.sender);  \n  }\n\n  // Define a modifier that checks to see if msg.sender has the appropriate role\n  modifier onlyDistributor() {\n    require(isDistributor(msg.sender));    \n    _;\n  }\n\n  // Define a function 'isDistributor' to check this role\n  function isDistributor(address account) public view returns (bool) {\n    return distributors.has(account);    \n  }\n\n  // Define a function 'addDistributor' that adds this role\n  function addDistributor(address account) public onlyDistributor {\n    _addDistributor(account);    \n  }\n\n  // Define a function 'renounceDistributor' to renounce this role\n  function renounceDistributor() public {\n    _removeDistributor(msg.sender);\n  }\n\n  // Define an internal function '_addDistributor' to add this role, called by 'addDistributor'\n  function _addDistributor(address account) internal {\n    distributors.add(account);\n    emit DistributorAdded(account);    \n  }\n\n  // Define an internal function '_removeDistributor' to remove this role, called by 'removeDistributor'\n  function _removeDistributor(address account) internal {\n\n  }\n}",
  "sourcePath": "/home/david/training/UDACITY/nd1309-Project-6b/contracts/coffeeaccesscontrol/DistributorRole.sol",
  "compiler": {
    "name": "solc",
    "version": "0.5.16+commit.9c3226ce.Emscripten.clang"
  },
  "schemaVersion": "3.0.23",
  "updatedAt": "2020-04-04T19:20:22.818Z",
  "networkType": "ethereum",
  "devdoc": {
    "methods": {}
  },
  "userdoc": {
    "methods": {}
  }
}